{
  "contractName": "AuctionRepository",
  "abi": [
    {
      "anonymous": false,
      "inputs": [
        {
          "indexed": false,
          "internalType": "address",
          "name": "_owner",
          "type": "address"
        },
        {
          "indexed": false,
          "internalType": "uint256",
          "name": "_auctionId",
          "type": "uint256"
        }
      ],
      "name": "AuctionCanceled",
      "type": "event"
    },
    {
      "anonymous": false,
      "inputs": [
        {
          "indexed": false,
          "internalType": "address",
          "name": "_owner",
          "type": "address"
        },
        {
          "indexed": false,
          "internalType": "uint256",
          "name": "_auctionId",
          "type": "uint256"
        }
      ],
      "name": "AuctionCreated",
      "type": "event"
    },
    {
      "anonymous": false,
      "inputs": [
        {
          "indexed": false,
          "internalType": "address",
          "name": "_owner",
          "type": "address"
        },
        {
          "indexed": false,
          "internalType": "uint256",
          "name": "_auctionId",
          "type": "uint256"
        }
      ],
      "name": "AuctionFinalized",
      "type": "event"
    },
    {
      "anonymous": false,
      "inputs": [
        {
          "indexed": false,
          "internalType": "address",
          "name": "_from",
          "type": "address"
        },
        {
          "indexed": false,
          "internalType": "uint256",
          "name": "_auctionId",
          "type": "uint256"
        }
      ],
      "name": "BidSuccess",
      "type": "event"
    },
    {
      "anonymous": false,
      "inputs": [
        {
          "indexed": false,
          "internalType": "address",
          "name": "_from",
          "type": "address"
        },
        {
          "indexed": false,
          "internalType": "uint256",
          "name": "_auctionId",
          "type": "uint256"
        }
      ],
      "name": "BuyoutSuccess",
      "type": "event"
    },
    {
      "payable": false,
      "stateMutability": "nonpayable",
      "type": "fallback"
    },
    {
      "constant": true,
      "inputs": [
        {
          "internalType": "uint256",
          "name": "",
          "type": "uint256"
        },
        {
          "internalType": "uint256",
          "name": "",
          "type": "uint256"
        }
      ],
      "name": "auctionBids",
      "outputs": [
        {
          "internalType": "address payable",
          "name": "from",
          "type": "address"
        },
        {
          "internalType": "uint256",
          "name": "amount",
          "type": "uint256"
        }
      ],
      "payable": false,
      "stateMutability": "view",
      "type": "function"
    },
    {
      "constant": true,
      "inputs": [
        {
          "internalType": "address",
          "name": "",
          "type": "address"
        },
        {
          "internalType": "uint256",
          "name": "",
          "type": "uint256"
        }
      ],
      "name": "auctionOwner",
      "outputs": [
        {
          "internalType": "uint256",
          "name": "",
          "type": "uint256"
        }
      ],
      "payable": false,
      "stateMutability": "view",
      "type": "function"
    },
    {
      "constant": true,
      "inputs": [
        {
          "internalType": "uint256",
          "name": "",
          "type": "uint256"
        }
      ],
      "name": "auctions",
      "outputs": [
        {
          "internalType": "string",
          "name": "name",
          "type": "string"
        },
        {
          "internalType": "uint256",
          "name": "blockDeadline",
          "type": "uint256"
        },
        {
          "internalType": "uint256",
          "name": "startPrice",
          "type": "uint256"
        },
        {
          "internalType": "uint256",
          "name": "buyoutPrice",
          "type": "uint256"
        },
        {
          "internalType": "string",
          "name": "metadata",
          "type": "string"
        },
        {
          "internalType": "uint256",
          "name": "deedId",
          "type": "uint256"
        },
        {
          "internalType": "address",
          "name": "deedRepositoryAddress",
          "type": "address"
        },
        {
          "internalType": "address payable",
          "name": "owner",
          "type": "address"
        },
        {
          "internalType": "bool",
          "name": "active",
          "type": "bool"
        },
        {
          "internalType": "bool",
          "name": "finalized",
          "type": "bool"
        }
      ],
      "payable": false,
      "stateMutability": "view",
      "type": "function"
    },
    {
      "constant": true,
      "inputs": [],
      "name": "getCount",
      "outputs": [
        {
          "internalType": "uint256",
          "name": "",
          "type": "uint256"
        }
      ],
      "payable": false,
      "stateMutability": "view",
      "type": "function"
    },
    {
      "constant": true,
      "inputs": [
        {
          "internalType": "uint256",
          "name": "_auctionId",
          "type": "uint256"
        }
      ],
      "name": "getBidsCount",
      "outputs": [
        {
          "internalType": "uint256",
          "name": "",
          "type": "uint256"
        }
      ],
      "payable": false,
      "stateMutability": "view",
      "type": "function"
    },
    {
      "constant": true,
      "inputs": [
        {
          "internalType": "address",
          "name": "_owner",
          "type": "address"
        }
      ],
      "name": "getAuctionsOf",
      "outputs": [
        {
          "internalType": "uint256[]",
          "name": "",
          "type": "uint256[]"
        }
      ],
      "payable": false,
      "stateMutability": "view",
      "type": "function"
    },
    {
      "constant": true,
      "inputs": [
        {
          "internalType": "uint256",
          "name": "_auctionId",
          "type": "uint256"
        }
      ],
      "name": "getBidsOnAuction",
      "outputs": [
        {
          "components": [
            {
              "internalType": "address payable",
              "name": "from",
              "type": "address"
            },
            {
              "internalType": "uint256",
              "name": "amount",
              "type": "uint256"
            }
          ],
          "internalType": "struct AuctionRepository.Bid[]",
          "name": "",
          "type": "tuple[]"
        }
      ],
      "payable": false,
      "stateMutability": "view",
      "type": "function"
    },
    {
      "constant": true,
      "inputs": [
        {
          "internalType": "uint256",
          "name": "_auctionId",
          "type": "uint256"
        }
      ],
      "name": "getCurrentBid",
      "outputs": [
        {
          "internalType": "uint256",
          "name": "",
          "type": "uint256"
        },
        {
          "internalType": "address",
          "name": "",
          "type": "address"
        }
      ],
      "payable": false,
      "stateMutability": "view",
      "type": "function"
    },
    {
      "constant": true,
      "inputs": [
        {
          "internalType": "address",
          "name": "_owner",
          "type": "address"
        }
      ],
      "name": "getAuctionsCountOfOwner",
      "outputs": [
        {
          "internalType": "uint256",
          "name": "",
          "type": "uint256"
        }
      ],
      "payable": false,
      "stateMutability": "view",
      "type": "function"
    },
    {
      "constant": true,
      "inputs": [
        {
          "internalType": "uint256",
          "name": "_auctionId",
          "type": "uint256"
        }
      ],
      "name": "getAuctionById",
      "outputs": [
        {
          "internalType": "string",
          "name": "name",
          "type": "string"
        },
        {
          "internalType": "uint256",
          "name": "blockDeadline",
          "type": "uint256"
        },
        {
          "internalType": "uint256",
          "name": "startPrice",
          "type": "uint256"
        },
        {
          "internalType": "uint256",
          "name": "buyoutPrice",
          "type": "uint256"
        },
        {
          "internalType": "string",
          "name": "metadata",
          "type": "string"
        },
        {
          "internalType": "uint256",
          "name": "deedId",
          "type": "uint256"
        },
        {
          "internalType": "address",
          "name": "deedRepositoryAddress",
          "type": "address"
        },
        {
          "internalType": "address",
          "name": "owner",
          "type": "address"
        },
        {
          "internalType": "bool",
          "name": "active",
          "type": "bool"
        },
        {
          "internalType": "bool",
          "name": "finalized",
          "type": "bool"
        }
      ],
      "payable": false,
      "stateMutability": "view",
      "type": "function"
    },
    {
      "constant": false,
      "inputs": [
        {
          "internalType": "address",
          "name": "_deedRepositoryAddress",
          "type": "address"
        },
        {
          "internalType": "uint256",
          "name": "_deedId",
          "type": "uint256"
        },
        {
          "internalType": "string",
          "name": "_auctionTitle",
          "type": "string"
        },
        {
          "internalType": "string",
          "name": "_metadata",
          "type": "string"
        },
        {
          "internalType": "uint256",
          "name": "_startPrice",
          "type": "uint256"
        },
        {
          "internalType": "uint256",
          "name": "_buyoutPrice",
          "type": "uint256"
        },
        {
          "internalType": "uint256",
          "name": "_blockDeadline",
          "type": "uint256"
        }
      ],
      "name": "createAuction",
      "outputs": [
        {
          "internalType": "bool",
          "name": "",
          "type": "bool"
        }
      ],
      "payable": false,
      "stateMutability": "nonpayable",
      "type": "function"
    },
    {
      "constant": false,
      "inputs": [
        {
          "internalType": "uint256",
          "name": "_auctionId",
          "type": "uint256"
        }
      ],
      "name": "cancelAuction",
      "outputs": [],
      "payable": false,
      "stateMutability": "nonpayable",
      "type": "function"
    },
    {
      "constant": false,
      "inputs": [
        {
          "internalType": "uint256",
          "name": "_auctionId",
          "type": "uint256"
        }
      ],
      "name": "finalizeAuction",
      "outputs": [],
      "payable": false,
      "stateMutability": "nonpayable",
      "type": "function"
    },
    {
      "constant": false,
      "inputs": [
        {
          "internalType": "uint256",
          "name": "_auctionId",
          "type": "uint256"
        }
      ],
      "name": "bidOnAuction",
      "outputs": [],
      "payable": true,
      "stateMutability": "payable",
      "type": "function"
    },
    {
      "constant": false,
      "inputs": [
        {
          "internalType": "uint256",
          "name": "_auctionId",
          "type": "uint256"
        }
      ],
      "name": "buyoutAuction",
      "outputs": [],
      "payable": true,
      "stateMutability": "payable",
      "type": "function"
    }
  ],
  "bytecode": "0x608060405234801561001057600080fd5b50613432806100206000396000f3fe6080604052600436106100e85760003560e01c8063a87d942c1161008a578063d56aa55811610059578063d56aa55814610344578063da4e364f14610381578063e4d7c3cb146103bf578063e8083863146103fc576100e8565b8063a87d942c14610262578063b1b61bfa1461028d578063b44cb93c146102ca578063c8756cda14610307576100e8565b80634008f9c0116100c65780634008f9c014610178578063571a26a0146101b55780635f93de49146101fb57806396b5a75514610239576100e8565b806318111ada146100fa57806326b7aeea146101405780633fc56b9b1461015c575b3480156100f457600080fd5b50600080fd5b34801561010657600080fd5b50610121600480360361011c91908101906129c2565b610425565b6040516101379a99989796959493929190612f54565b60405180910390f35b61015a600480360361015591908101906129c2565b610714565b005b610176600480360361017191908101906129c2565b610d13565b005b34801561018457600080fd5b5061019f600480360361019a91908101906129c2565b611365565b6040516101ac91906131a8565b60405180910390f35b3480156101c157600080fd5b506101dc60048036036101d791908101906129c2565b611385565b6040516101f29a99989796959493929190612ffe565b60405180910390f35b34801561020757600080fd5b50610222600480360361021d91908101906129eb565b611570565b604051610230929190612e43565b60405180910390f35b34801561024557600080fd5b50610260600480360361025b91908101906129c2565b6115ce565b005b34801561026e57600080fd5b50610277611a67565b60405161028491906131a8565b60405180910390f35b34801561029957600080fd5b506102b460048036036102af9190810190612866565b611a73565b6040516102c19190612f17565b60405180910390f35b3480156102d657600080fd5b506102f160048036036102ec91908101906129c2565b611b0f565b6040516102fe9190612ef5565b60405180910390f35b34801561031357600080fd5b5061032e600480360361032991908101906128b8565b611be6565b60405161033b91906131a8565b60405180910390f35b34801561035057600080fd5b5061036b60048036036103669190810190612866565b611c14565b60405161037891906131a8565b60405180910390f35b34801561038d57600080fd5b506103a860048036036103a391908101906129c2565b611c60565b6040516103b69291906131c3565b60405180910390f35b3480156103cb57600080fd5b506103e660048036036103e191908101906128f4565b611d54565b6040516103f39190612f39565b60405180910390f35b34801561040857600080fd5b50610423600480360361041e91908101906129c2565b612115565b005b606060008060006060600080600080600061043e61267b565b60008c8154811061044b57fe5b906000526020600020906008020160405180610140016040529081600082018054600181600116156101000203166002900480601f0160208091040260200160405190810160405280929190818152602001828054600181600116156101000203166002900480156104fe5780601f106104d3576101008083540402835291602001916104fe565b820191906000526020600020905b8154815290600101906020018083116104e157829003601f168201915b50505050508152602001600182015481526020016002820154815260200160038201548152602001600482018054600181600116156101000203166002900480601f0160208091040260200160405190810160405280929190818152602001828054600181600116156101000203166002900480156105be5780601f10610593576101008083540402835291602001916105be565b820191906000526020600020905b8154815290600101906020018083116105a157829003601f168201915b50505050508152602001600582015481526020016006820160009054906101000a900473ffffffffffffffffffffffffffffffffffffffff1673ffffffffffffffffffffffffffffffffffffffff1673ffffffffffffffffffffffffffffffffffffffff1681526020016007820160009054906101000a900473ffffffffffffffffffffffffffffffffffffffff1673ffffffffffffffffffffffffffffffffffffffff1673ffffffffffffffffffffffffffffffffffffffff1681526020016007820160149054906101000a900460ff161515151581526020016007820160159054906101000a900460ff1615151515815250509050806000015181602001518260400151836060015184608001518560a001518660c001518760e001518861010001518961012001518999508595508292509a509a509a509a509a509a509a509a509a509a50509193959799509193959799565b600034905061072161267b565b6000838154811061072e57fe5b906000526020600020906008020160405180610140016040529081600082018054600181600116156101000203166002900480601f0160208091040260200160405190810160405280929190818152602001828054600181600116156101000203166002900480156107e15780601f106107b6576101008083540402835291602001916107e1565b820191906000526020600020905b8154815290600101906020018083116107c457829003601f168201915b50505050508152602001600182015481526020016002820154815260200160038201548152602001600482018054600181600116156101000203166002900480601f0160208091040260200160405190810160405280929190818152602001828054600181600116156101000203166002900480156108a15780601f10610876576101008083540402835291602001916108a1565b820191906000526020600020905b81548152906001019060200180831161088457829003601f168201915b50505050508152602001600582015481526020016006820160009054906101000a900473ffffffffffffffffffffffffffffffffffffffff1673ffffffffffffffffffffffffffffffffffffffff1673ffffffffffffffffffffffffffffffffffffffff1681526020016007820160009054906101000a900473ffffffffffffffffffffffffffffffffffffffff1673ffffffffffffffffffffffffffffffffffffffff1673ffffffffffffffffffffffffffffffffffffffff1681526020016007820160149054906101000a900460ff161515151581526020016007820160159054906101000a900460ff16151515158152505090503373ffffffffffffffffffffffffffffffffffffffff168160e0015173ffffffffffffffffffffffffffffffffffffffff161415610a0b576040517f08c379a0000000000000000000000000000000000000000000000000000000008152600401610a0290613128565b60405180910390fd5b8060200151421115610a52576040517f08c379a0000000000000000000000000000000000000000000000000000000008152600401610a4990613108565b60405180910390fd5b600060016000858152602001908152602001600020805490509050600082604001519050610a7e6126fe565b6000831115610b2b57600160008781526020019081526020016000206001840381548110610aa857fe5b90600052602060002090600202016040518060400160405290816000820160009054906101000a900473ffffffffffffffffffffffffffffffffffffffff1673ffffffffffffffffffffffffffffffffffffffff1673ffffffffffffffffffffffffffffffffffffffff1681526020016001820154815250509050806020015191505b81851015610b6e576040517f08c379a0000000000000000000000000000000000000000000000000000000008152600401610b6590613148565b60405180910390fd5b6000831115610bf457806000015173ffffffffffffffffffffffffffffffffffffffff166108fc82602001519081150290604051600060405180830381858888f19350505050610bf3576040517f08c379a0000000000000000000000000000000000000000000000000000000008152600401610bea90613168565b60405180910390fd5b5b610bfc6126fe565b33816000019073ffffffffffffffffffffffffffffffffffffffff16908173ffffffffffffffffffffffffffffffffffffffff16815250508581602001818152505060016000888152602001908152602001600020819080600181540180825580915050906001820390600052602060002090600202016000909192909190915060008201518160000160006101000a81548173ffffffffffffffffffffffffffffffffffffffff021916908373ffffffffffffffffffffffffffffffffffffffff160217905550602082015181600101555050507f5762e6a7d331cd17a1761e94de3ea3b85e90ee6cdd9d1204e361cc650689d4633388604051610d02929190612e6c565b60405180910390a150505050505050565b6000349050610d2061267b565b60008381548110610d2d57fe5b906000526020600020906008020160405180610140016040529081600082018054600181600116156101000203166002900480601f016020809104026020016040519081016040528092919081815260200182805460018160011615610100020316600290048015610de05780601f10610db557610100808354040283529160200191610de0565b820191906000526020600020905b815481529060010190602001808311610dc357829003601f168201915b50505050508152602001600182015481526020016002820154815260200160038201548152602001600482018054600181600116156101000203166002900480601f016020809104026020016040519081016040528092919081815260200182805460018160011615610100020316600290048015610ea05780601f10610e7557610100808354040283529160200191610ea0565b820191906000526020600020905b815481529060010190602001808311610e8357829003601f168201915b50505050508152602001600582015481526020016006820160009054906101000a900473ffffffffffffffffffffffffffffffffffffffff1673ffffffffffffffffffffffffffffffffffffffff1673ffffffffffffffffffffffffffffffffffffffff1681526020016007820160009054906101000a900473ffffffffffffffffffffffffffffffffffffffff1673ffffffffffffffffffffffffffffffffffffffff1673ffffffffffffffffffffffffffffffffffffffff1681526020016007820160149054906101000a900460ff161515151581526020016007820160159054906101000a900460ff16151515158152505090503373ffffffffffffffffffffffffffffffffffffffff168160e0015173ffffffffffffffffffffffffffffffffffffffff16141561100a576040517f08c379a0000000000000000000000000000000000000000000000000000000008152600401611001906130e8565b60405180910390fd5b8060200151421115611051576040517f08c379a0000000000000000000000000000000000000000000000000000000008152600401611048906130c8565b60405180910390fd5b60006001600085815260200190815260200160002080549050905060008260600151905061107d6126fe565b818510156110c0576040517f08c379a00000000000000000000000000000000000000000000000000000000081526004016110b7906130a8565b60405180910390fd5b6000831115611166576001600087815260200190815260200160002060018403815481106110ea57fe5b90600052602060002090600202016040518060400160405290816000820160009054906101000a900473ffffffffffffffffffffffffffffffffffffffff1673ffffffffffffffffffffffffffffffffffffffff1673ffffffffffffffffffffffffffffffffffffffff16815260200160018201548152505090505b60008311156111ec57806000015173ffffffffffffffffffffffffffffffffffffffff166108fc82602001519081150290604051600060405180830381858888f193505050506111eb576040517f08c379a00000000000000000000000000000000000000000000000000000000081526004016111e290613168565b60405180910390fd5b5b8360e0015173ffffffffffffffffffffffffffffffffffffffff166108fc839081150290604051600060405180830381858888f19350505050611264576040517f08c379a000000000000000000000000000000000000000000000000000000000815260040161125b90613188565b60405180910390fd5b61127830338660c001518760a0015161258c565b1561135d57600080878154811061128b57fe5b906000526020600020906008020160070160146101000a81548160ff0219169083151502179055506001600087815481106112c257fe5b906000526020600020906008020160070160156101000a81548160ff0219169083151502179055507f15a932b4e710b64bd805afba883a892d8f948bdffb4172e10d0b71de76b48b8f338760405161131b929190612e6c565b60405180910390a17f357afab190ee87fe0ef1c717f2728d2904d9e415a069d99f4d9382873cb3279d3387604051611354929190612e6c565b60405180910390a15b505050505050565b600060016000838152602001908152602001600020805490509050919050565b6000818154811061139257fe5b9060005260206000209060080201600091509050806000018054600181600116156101000203166002900480601f01602080910402602001604051908101604052809291908181526020018280546001816001161561010002031660029004801561143e5780601f106114135761010080835404028352916020019161143e565b820191906000526020600020905b81548152906001019060200180831161142157829003601f168201915b505050505090806001015490806002015490806003015490806004018054600181600116156101000203166002900480601f0160208091040260200160405190810160405280929190818152602001828054600181600116156101000203166002900480156114ee5780601f106114c3576101008083540402835291602001916114ee565b820191906000526020600020905b8154815290600101906020018083116114d157829003601f168201915b5050505050908060050154908060060160009054906101000a900473ffffffffffffffffffffffffffffffffffffffff16908060070160009054906101000a900473ffffffffffffffffffffffffffffffffffffffff16908060070160149054906101000a900460ff16908060070160159054906101000a900460ff1690508a565b6001602052816000526040600020818154811061158957fe5b9060005260206000209060020201600091509150508060000160009054906101000a900473ffffffffffffffffffffffffffffffffffffffff16908060010154905082565b803373ffffffffffffffffffffffffffffffffffffffff16600082815481106115f357fe5b906000526020600020906008020160070160009054906101000a900473ffffffffffffffffffffffffffffffffffffffff1673ffffffffffffffffffffffffffffffffffffffff161461164557600080fd5b61164d61267b565b6000838154811061165a57fe5b906000526020600020906008020160405180610140016040529081600082018054600181600116156101000203166002900480601f01602080910402602001604051908101604052809291908181526020018280546001816001161561010002031660029004801561170d5780601f106116e25761010080835404028352916020019161170d565b820191906000526020600020905b8154815290600101906020018083116116f057829003601f168201915b50505050508152602001600182015481526020016002820154815260200160038201548152602001600482018054600181600116156101000203166002900480601f0160208091040260200160405190810160405280929190818152602001828054600181600116156101000203166002900480156117cd5780601f106117a2576101008083540402835291602001916117cd565b820191906000526020600020905b8154815290600101906020018083116117b057829003601f168201915b50505050508152602001600582015481526020016006820160009054906101000a900473ffffffffffffffffffffffffffffffffffffffff1673ffffffffffffffffffffffffffffffffffffffff1673ffffffffffffffffffffffffffffffffffffffff1681526020016007820160009054906101000a900473ffffffffffffffffffffffffffffffffffffffff1673ffffffffffffffffffffffffffffffffffffffff1673ffffffffffffffffffffffffffffffffffffffff1681526020016007820160149054906101000a900460ff161515151581526020016007820160159054906101000a900460ff161515151581525050905060006001600085815260200190815260200160002080549050905060008111156119d4576118f06126fe565b60016000868152602001908152602001600020600183038154811061191157fe5b90600052602060002090600202016040518060400160405290816000820160009054906101000a900473ffffffffffffffffffffffffffffffffffffffff1673ffffffffffffffffffffffffffffffffffffffff1673ffffffffffffffffffffffffffffffffffffffff1681526020016001820154815250509050806000015173ffffffffffffffffffffffffffffffffffffffff166108fc82602001519081150290604051600060405180830381858888f193505050506119d257600080fd5b505b6119ec308360e001518460c001518560a0015161258c565b15611a615760008085815481106119ff57fe5b906000526020600020906008020160070160146101000a81548160ff0219169083151502179055507f39e6c898ce035bbacd9ba4f9753534f8c9f976e0ff70be83cfe887f235afa1d33385604051611a58929190612e6c565b60405180910390a15b50505050565b60008080549050905090565b606080600260008473ffffffffffffffffffffffffffffffffffffffff1673ffffffffffffffffffffffffffffffffffffffff168152602001908152602001600020805480602002602001604051908101604052809291908181526020018280548015611aff57602002820191906000526020600020905b815481526020019060010190808311611aeb575b5050505050905080915050919050565b60608060016000848152602001908152602001600020805480602002602001604051908101604052809291908181526020016000905b82821015611bd757838290600052602060002090600202016040518060400160405290816000820160009054906101000a900473ffffffffffffffffffffffffffffffffffffffff1673ffffffffffffffffffffffffffffffffffffffff1673ffffffffffffffffffffffffffffffffffffffff16815260200160018201548152505081526020019060010190611b45565b50505050905080915050919050565b60026020528160005260406000208181548110611bff57fe5b90600052602060002001600091509150505481565b6000600260008373ffffffffffffffffffffffffffffffffffffffff1673ffffffffffffffffffffffffffffffffffffffff168152602001908152602001600020805490509050919050565b6000806000600160008581526020019081526020016000208054905090506000811115611d4357611c8f6126fe565b600160008681526020019081526020016000206001830381548110611cb057fe5b90600052602060002090600202016040518060400160405290816000820160009054906101000a900473ffffffffffffffffffffffffffffffffffffffff1673ffffffffffffffffffffffffffffffffffffffff1673ffffffffffffffffffffffffffffffffffffffff168152602001600182015481525050905080602001518160000151809050935093505050611d4f565b60008080905092509250505b915091565b6000878760008273ffffffffffffffffffffffffffffffffffffffff16636352211e836040518263ffffffff1660e01b8152600401611d9391906131a8565b60206040518083038186803b158015611dab57600080fd5b505afa158015611dbf573d6000803e3d6000fd5b505050506040513d601f19601f82011682018060405250611de3919081019061288f565b90503073ffffffffffffffffffffffffffffffffffffffff168173ffffffffffffffffffffffffffffffffffffffff1614611e1d57600080fd5b600080805490509050611e2e61267b565b8a81600001819052508681602001818152505088816040018181525050878160600181815250508981608001819052508b8160a00181815250508c8160c0019073ffffffffffffffffffffffffffffffffffffffff16908173ffffffffffffffffffffffffffffffffffffffff1681525050338160e0019073ffffffffffffffffffffffffffffffffffffffff16908173ffffffffffffffffffffffffffffffffffffffff1681525050600181610100019015159081151581525050600081610120019015159081151581525050600081908060018154018082558091505090600182039060005260206000209060080201600090919290919091506000820151816000019080519060200190611f4692919061272e565b506020820151816001015560408201518160020155606082015181600301556080820151816004019080519060200190611f8192919061272e565b5060a0820151816005015560c08201518160060160006101000a81548173ffffffffffffffffffffffffffffffffffffffff021916908373ffffffffffffffffffffffffffffffffffffffff16021790555060e08201518160070160006101000a81548173ffffffffffffffffffffffffffffffffffffffff021916908373ffffffffffffffffffffffffffffffffffffffff1602179055506101008201518160070160146101000a81548160ff0219169083151502179055506101208201518160070160156101000a81548160ff021916908315150217905550505050600260003373ffffffffffffffffffffffffffffffffffffffff1673ffffffffffffffffffffffffffffffffffffffff1681526020019081526020016000208290806001815401808255809150509060018203906000526020600020016000909192909190915055507f3249a06bd478adf780bb7930214ad005e9cfa517d63221c0b77f27199d1a58b333836040516120f9929190612e6c565b60405180910390a1600195505050505050979650505050505050565b61211d61267b565b6000828154811061212a57fe5b906000526020600020906008020160405180610140016040529081600082018054600181600116156101000203166002900480601f0160208091040260200160405190810160405280929190818152602001828054600181600116156101000203166002900480156121dd5780601f106121b2576101008083540402835291602001916121dd565b820191906000526020600020905b8154815290600101906020018083116121c057829003601f168201915b50505050508152602001600182015481526020016002820154815260200160038201548152602001600482018054600181600116156101000203166002900480601f01602080910402602001604051908101604052809291908181526020018280546001816001161561010002031660029004801561229d5780601f106122725761010080835404028352916020019161229d565b820191906000526020600020905b81548152906001019060200180831161228057829003601f168201915b50505050508152602001600582015481526020016006820160009054906101000a900473ffffffffffffffffffffffffffffffffffffffff1673ffffffffffffffffffffffffffffffffffffffff1673ffffffffffffffffffffffffffffffffffffffff1681526020016007820160009054906101000a900473ffffffffffffffffffffffffffffffffffffffff1673ffffffffffffffffffffffffffffffffffffffff1673ffffffffffffffffffffffffffffffffffffffff1681526020016007820160149054906101000a900460ff161515151581526020016007820160159054906101000a900460ff161515151581525050905060006001600084815260200190815260200160002080549050905081602001514210156123c057600080fd5b60008114156123d7576123d2836115ce565b612587565b6123df6126fe565b60016000858152602001908152602001600020600183038154811061240057fe5b90600052602060002090600202016040518060400160405290816000820160009054906101000a900473ffffffffffffffffffffffffffffffffffffffff1673ffffffffffffffffffffffffffffffffffffffff1673ffffffffffffffffffffffffffffffffffffffff16815260200160018201548152505090508260e0015173ffffffffffffffffffffffffffffffffffffffff166108fc82602001519081150290604051600060405180830381858888f193505050506124c157600080fd5b6124d93082600001518560c001518660a0015161258c565b156125855760008085815481106124ec57fe5b906000526020600020906008020160070160146101000a81548160ff02191690831515021790555060016000858154811061252357fe5b906000526020600020906008020160070160156101000a81548160ff0219169083151502179055507f357afab190ee87fe0ef1c717f2728d2904d9e415a069d99f4d9382873cb3279d338560405161257c929190612e6c565b60405180910390a15b505b505050565b6000808390508073ffffffffffffffffffffffffffffffffffffffff1663095ea7b386856040518363ffffffff1660e01b81526004016125cd929190612ecc565b600060405180830381600087803b1580156125e757600080fd5b505af11580156125fb573d6000803e3d6000fd5b505050508073ffffffffffffffffffffffffffffffffffffffff166323b872dd8787866040518463ffffffff1660e01b815260040161263c93929190612e95565b600060405180830381600087803b15801561265657600080fd5b505af115801561266a573d6000803e3d6000fd5b505050506001915050949350505050565b604051806101400160405280606081526020016000815260200160008152602001600081526020016060815260200160008152602001600073ffffffffffffffffffffffffffffffffffffffff168152602001600073ffffffffffffffffffffffffffffffffffffffff1681526020016000151581526020016000151581525090565b6040518060400160405280600073ffffffffffffffffffffffffffffffffffffffff168152602001600081525090565b828054600181600116156101000203166002900490600052602060002090601f016020900481019282601f1061276f57805160ff191683800117855561279d565b8280016001018555821561279d579182015b8281111561279c578251825591602001919060010190612781565b5b5090506127aa91906127ae565b5090565b6127d091905b808211156127cc5760008160009055506001016127b4565b5090565b90565b6000813590506127e2816133c1565b92915050565b6000815190506127f7816133c1565b92915050565b600082601f83011261280e57600080fd5b813561282161281c82613219565b6131ec565b9150808252602083016020830185838301111561283d57600080fd5b61284883828461336e565b50505092915050565b600081359050612860816133d8565b92915050565b60006020828403121561287857600080fd5b6000612886848285016127d3565b91505092915050565b6000602082840312156128a157600080fd5b60006128af848285016127e8565b91505092915050565b600080604083850312156128cb57600080fd5b60006128d9858286016127d3565b92505060206128ea85828601612851565b9150509250929050565b600080600080600080600060e0888a03121561290f57600080fd5b600061291d8a828b016127d3565b975050602061292e8a828b01612851565b965050604088013567ffffffffffffffff81111561294b57600080fd5b6129578a828b016127fd565b955050606088013567ffffffffffffffff81111561297457600080fd5b6129808a828b016127fd565b94505060806129918a828b01612851565b93505060a06129a28a828b01612851565b92505060c06129b38a828b01612851565b91505092959891949750929550565b6000602082840312156129d457600080fd5b60006129e284828501612851565b91505092915050565b600080604083850312156129fe57600080fd5b6000612a0c85828601612851565b9250506020612a1d85828601612851565b9150509250929050565b6000612a338383612df6565b60408301905092915050565b6000612a4b8383612e25565b60208301905092915050565b612a6081613338565b82525050565b612a6f816132f0565b82525050565b612a7e816132f0565b82525050565b612a8d816132de565b82525050565b6000612a9e82613265565b612aa881856132ab565b9350612ab383613245565b8060005b83811015612ae4578151612acb8882612a27565b9750612ad683613291565b925050600181019050612ab7565b5085935050505092915050565b6000612afc82613270565b612b0681856132bc565b9350612b1183613255565b8060005b83811015612b42578151612b298882612a3f565b9750612b348361329e565b925050600181019050612b15565b5085935050505092915050565b612b5881613302565b82525050565b6000612b6982613286565b612b7381856132cd565b9350612b8381856020860161337d565b612b8c816133b0565b840191505092915050565b6000612ba28261327b565b612bac81856132cd565b9350612bbc81856020860161337d565b612bc5816133b0565b840191505092915050565b6000612bdd601e836132cd565b91507f4275796f7574206d757374206d61746368206275796f757420707269636500006000830152602082019050919050565b6000612c1d6024836132cd565b91507f457870697265642061756374696f6e2063616e6e6f7420626520626f7567687460008301527f206f7574000000000000000000000000000000000000000000000000000000006020830152604082019050919050565b6000612c83601e836132cd565b91507f43616e6e6f74206275796f757420796f7572206f776e2061756374696f6e00006000830152602082019050919050565b6000612cc36020836132cd565b91507f457870697265642061756374696f6e2063616e6e6f7420626520626964206f6e6000830152602082019050919050565b6000612d03601e836132cd565b91507f43616e6e6f7420626964206f6e20796f7572206f776e2061756374696f6e00006000830152602082019050919050565b6000612d43601f836132cd565b91507f426964206d757374206578636565642070726576696f757320616d6f756e74006000830152602082019050919050565b6000612d836011836132cd565b91507f42696420726566756e64206661696c65640000000000000000000000000000006000830152602082019050919050565b6000612dc36014836132cd565b91507f4275796f7574207061796f7574206661696c65640000000000000000000000006000830152602082019050919050565b604082016000820151612e0c6000850182612a66565b506020820151612e1f6020850182612e25565b50505050565b612e2e8161332e565b82525050565b612e3d8161332e565b82525050565b6000604082019050612e586000830185612a75565b612e656020830184612e34565b9392505050565b6000604082019050612e816000830185612a57565b612e8e6020830184612e34565b9392505050565b6000606082019050612eaa6000830186612a84565b612eb76020830185612a84565b612ec46040830184612e34565b949350505050565b6000604082019050612ee16000830185612a84565b612eee6020830184612e34565b9392505050565b60006020820190508181036000830152612f0f8184612a93565b905092915050565b60006020820190508181036000830152612f318184612af1565b905092915050565b6000602082019050612f4e6000830184612b4f565b92915050565b6000610140820190508181036000830152612f6f818d612b5e565b9050612f7e602083018c612e34565b612f8b604083018b612e34565b612f98606083018a612e34565b8181036080830152612faa8189612b5e565b9050612fb960a0830188612e34565b612fc660c0830187612a84565b612fd360e0830186612a84565b612fe1610100830185612b4f565b612fef610120830184612b4f565b9b9a5050505050505050505050565b6000610140820190508181036000830152613019818d612b97565b9050613028602083018c612e34565b613035604083018b612e34565b613042606083018a612e34565b81810360808301526130548189612b97565b905061306360a0830188612e34565b61307060c0830187612a84565b61307d60e0830186612a75565b61308b610100830185612b4f565b613099610120830184612b4f565b9b9a5050505050505050505050565b600060208201905081810360008301526130c181612bd0565b9050919050565b600060208201905081810360008301526130e181612c10565b9050919050565b6000602082019050818103600083015261310181612c76565b9050919050565b6000602082019050818103600083015261312181612cb6565b9050919050565b6000602082019050818103600083015261314181612cf6565b9050919050565b6000602082019050818103600083015261316181612d36565b9050919050565b6000602082019050818103600083015261318181612d76565b9050919050565b600060208201905081810360008301526131a181612db6565b9050919050565b60006020820190506131bd6000830184612e34565b92915050565b60006040820190506131d86000830185612e34565b6131e56020830184612a84565b9392505050565b6000604051905081810181811067ffffffffffffffff8211171561320f57600080fd5b8060405250919050565b600067ffffffffffffffff82111561323057600080fd5b601f19601f8301169050602081019050919050565b6000819050602082019050919050565b6000819050602082019050919050565b600081519050919050565b600081519050919050565b600081519050919050565b600081519050919050565b6000602082019050919050565b6000602082019050919050565b600082825260208201905092915050565b600082825260208201905092915050565b600082825260208201905092915050565b60006132e98261330e565b9050919050565b60006132fb8261330e565b9050919050565b60008115159050919050565b600073ffffffffffffffffffffffffffffffffffffffff82169050919050565b6000819050919050565b60006133438261334a565b9050919050565b60006133558261335c565b9050919050565b60006133678261330e565b9050919050565b82818337600083830152505050565b60005b8381101561339b578082015181840152602081019050613380565b838111156133aa576000848401525b50505050565b6000601f19601f8301169050919050565b6133ca816132de565b81146133d557600080fd5b50565b6133e18161332e565b81146133ec57600080fd5b5056fea365627a7a72315820324431d9ed57398b547373abb1ac0720557ce706c06234f94d585a93f22969296c6578706572696d656e74616cf564736f6c63430005100040",
  "source": "pragma solidity ^0.5.16;\r\npragma experimental ABIEncoderV2;\r\n\r\nimport \"./DeedRepository.sol\";\r\n\r\n/**\r\n * @title Auction Repository\r\n * This contracts allows auctions to be created for non-fungible tokens\r\n * Moreover, it includes the basic functionalities of an auction house\r\n */\r\ncontract AuctionRepository {\r\n    \r\n    // Array with all auctions\r\n    Auction[] public auctions;\r\n\r\n    // Mapping from auction index to user bids\r\n    mapping(uint256 => Bid[]) public auctionBids;\r\n\r\n    // Mapping from owner to a list of owned auctions\r\n    mapping(address => uint[]) public auctionOwner;\r\n\r\n    // Bid struct to hold bidder and amount\r\n    struct Bid {\r\n        address payable from;\r\n        uint256 amount;\r\n    }\r\n\r\n    // Auction struct which holds all the required info\r\n    struct Auction {\r\n        string name;\r\n        uint256 blockDeadline;\r\n        uint256 startPrice;\r\n\t\tuint256 buyoutPrice;\r\n        string metadata;\r\n        uint256 deedId;\r\n        address deedRepositoryAddress;\r\n        address payable owner;\r\n        bool active;\r\n        bool finalized;\r\n    }\r\n\r\n    /**\r\n    * @dev Guarantees msg.sender is owner of the given auction\r\n    * @param _auctionId uint ID of the auction to validate its ownership belongs to msg.sender\r\n    */\r\n    modifier isOwner(uint _auctionId) {\r\n        require(auctions[_auctionId].owner == msg.sender);\r\n        _;\r\n    }\r\n\r\n    /**\r\n    * @dev Guarantees this contract is owner of the given deed/token\r\n    * @param _deedRepositoryAddress address of the deed repository to validate from\r\n    * @param _deedId uint256 ID of the deed which has been registered in the deed repository\r\n    */\r\n    modifier contractIsDeedOwner(address _deedRepositoryAddress, uint256 _deedId) {\r\n        address deedOwner = DeedRepository(_deedRepositoryAddress).ownerOf(_deedId);\r\n        require(deedOwner == address(this));\r\n        _;\r\n    }\r\n\r\n    /**\r\n    * @dev Disallow payments to this contract directly\r\n    */\r\n    function() external {\r\n        revert();\r\n    }\r\n\r\n    /**\r\n    * @dev Gets the length of auctions\r\n    * @return uint representing the auction count\r\n    */\r\n    function getCount() public view returns(uint) {\r\n        return auctions.length;\r\n    }\r\n\r\n    /**\r\n    * @dev Gets the bid counts of a given auction\r\n    * @param _auctionId uint ID of the auction\r\n    */\r\n    function getBidsCount(uint _auctionId) public view returns(uint) {\r\n        return auctionBids[_auctionId].length;\r\n    }\r\n\r\n    /**\r\n    * @dev Gets an array of owned auctions\r\n    * @param _owner address of the auction owner\r\n    */\r\n    function getAuctionsOf(address _owner) public view returns(uint[] memory) {\r\n        uint[] memory ownedAuctions = auctionOwner[_owner];\r\n        return ownedAuctions;\r\n    }\r\n\t/*\r\n\t* @dev Gets all the bids on an auction\r\n\t* @param _auctionId the id number of the auction\r\n\t*/\r\n\tfunction getBidsOnAuction(uint _auctionId) public view returns(Bid[] memory) {\r\n\t\tBid[] memory allTheBids = auctionBids[_auctionId];\r\n\t\treturn allTheBids;\r\n\t}\r\n\r\n    /**\r\n    * @dev Gets an array of owned auctions\r\n    * @param _auctionId uint of the auction owner\r\n    * @return amount uint256, address of last bidder\r\n    */\r\n    function getCurrentBid(uint _auctionId) public view returns(uint256, address) {\r\n        uint bidsLength = auctionBids[_auctionId].length;\r\n        // if there are bids refund the last bid\r\n        if( bidsLength > 0 ) {\r\n            Bid memory lastBid = auctionBids[_auctionId][bidsLength - 1];\r\n            return (lastBid.amount, lastBid.from);\r\n        }\r\n        return (uint256(0), address(0));\r\n    }\r\n\r\n    /**\r\n    * @dev Gets the total number of auctions owned by an address\r\n    * @param _owner address of the owner\r\n    * @return uint total number of auctions\r\n    */\r\n    function getAuctionsCountOfOwner(address _owner) public view returns(uint) {\r\n        return auctionOwner[_owner].length;\r\n    }\r\n\r\n    /**\r\n    * @dev Gets the info of a given auction which are stored within a struct\r\n    * @param _auctionId uint ID of the auction\r\n    * @return string name of the auction\r\n    * @return uint256 timestamp of the auction in which it expires\r\n    * @return uint256 starting price of the auction\r\n    * @return string representing the metadata of the auction\r\n    * @return uint256 ID of the deed registered in DeedRepository\r\n    * @return address Address of the DeedRepository\r\n    * @return address owner of the auction\r\n    * @return bool whether the auction is active\r\n    * @return bool whether the auction is finalized\r\n    */\r\n    function getAuctionById(uint _auctionId) public view returns(\r\n        string memory name,\r\n        uint256 blockDeadline,\r\n        uint256 startPrice,\r\n\t\tuint256 buyoutPrice,\r\n        string memory metadata,\r\n        uint256 deedId,\r\n        address deedRepositoryAddress,\r\n        address owner,\r\n        bool active,\r\n        bool finalized) {\r\n\r\n        Auction memory auc = auctions[_auctionId];\r\n        return (\r\n            auc.name, \r\n            auc.blockDeadline, \r\n            auc.startPrice,\r\n\t\t\tauc.buyoutPrice,\r\n            auc.metadata, \r\n            auc.deedId, \r\n            auc.deedRepositoryAddress, \r\n            auc.owner, \r\n            auc.active, \r\n            auc.finalized);\r\n    }\r\n    \r\n    /**\r\n    * @dev Creates an auction with the given informatin\r\n    * @param _deedRepositoryAddress address of the DeedRepository contract\r\n    * @param _deedId uint256 of the deed registered in DeedRepository\r\n    * @param _auctionTitle string containing auction title\r\n    * @param _metadata string containing auction metadata \r\n    * @param _startPrice uint256 starting price of the auction\r\n    * @param _blockDeadline uint is the timestamp in which the auction expires\r\n    * @return bool whether the auction is created\r\n    */\r\n    function createAuction(address _deedRepositoryAddress, uint256 _deedId, string memory _auctionTitle, string memory _metadata, uint256 _startPrice, uint256 _buyoutPrice, uint _blockDeadline) public contractIsDeedOwner(_deedRepositoryAddress, _deedId) returns(bool) {\r\n        uint auctionId = auctions.length;\r\n        Auction memory newAuction;\r\n        newAuction.name = _auctionTitle;\r\n        newAuction.blockDeadline = _blockDeadline;\r\n        newAuction.startPrice = _startPrice;\r\n\t\tnewAuction.buyoutPrice = _buyoutPrice;\r\n        newAuction.metadata = _metadata;\r\n        newAuction.deedId = _deedId;\r\n        newAuction.deedRepositoryAddress = _deedRepositoryAddress;\r\n        newAuction.owner = msg.sender;\r\n        newAuction.active = true;\r\n        newAuction.finalized = false;\r\n        \r\n        auctions.push(newAuction);        \r\n        auctionOwner[msg.sender].push(auctionId);\r\n        \r\n        emit AuctionCreated(msg.sender, auctionId);\r\n        return true;\r\n    }\r\n\r\n    function approveAndTransfer(address _from, address _to, address _deedRepositoryAddress, uint256 _deedId) internal returns(bool) {\r\n        DeedRepository remoteContract = DeedRepository(_deedRepositoryAddress);\r\n        remoteContract.approve(_to, _deedId);\r\n        remoteContract.transferFrom(_from, _to, _deedId);\r\n        return true;\r\n    }\r\n\r\n    /**\r\n    * @dev Cancels an ongoing auction by the owner\r\n    * @dev Deed is transfered back to the auction owner\r\n    * @dev Bidder is refunded with the initial amount\r\n    * @param _auctionId uint ID of the created auction\r\n    */\r\n    function cancelAuction(uint _auctionId) public isOwner(_auctionId) {\r\n        Auction memory myAuction = auctions[_auctionId];\r\n        uint bidsLength = auctionBids[_auctionId].length;\r\n\r\n        // if there are bids refund the last bid\r\n        if( bidsLength > 0 ) {\r\n            Bid memory lastBid = auctionBids[_auctionId][bidsLength - 1];\r\n            if(!lastBid.from.send(lastBid.amount)) {\r\n                revert();\r\n            }\r\n        }\r\n\r\n        // approve and transfer from this contract to auction owner\r\n        if(approveAndTransfer(address(this), myAuction.owner, myAuction.deedRepositoryAddress, myAuction.deedId)){\r\n            auctions[_auctionId].active = false;\r\n            emit AuctionCanceled(msg.sender, _auctionId);\r\n        }\r\n    }\r\n\r\n    /**\r\n    * @dev Finalized an ended auction\r\n    * @dev The auction should be ended, and there should be at least one bid\r\n    * @dev On success Deed is transfered to bidder and auction owner gets the amount\r\n    * @param _auctionId uint ID of the created auction\r\n    */\r\n    function finalizeAuction(uint _auctionId) public {\r\n        Auction memory myAuction = auctions[_auctionId];\r\n        uint bidsLength = auctionBids[_auctionId].length;\r\n\r\n        // 1. if auction not ended just revert\r\n        if( block.timestamp < myAuction.blockDeadline ) revert();\r\n        \r\n        // if there are no bids cancel\r\n        if(bidsLength == 0) {\r\n            cancelAuction(_auctionId);\r\n        }else{\r\n\r\n            // 2. the money goes to the auction owner\r\n            Bid memory lastBid = auctionBids[_auctionId][bidsLength - 1];\r\n            if(!myAuction.owner.send(lastBid.amount)) {\r\n                revert();\r\n            }\r\n\r\n            // approve and transfer from this contract to the bid winner \r\n            if(approveAndTransfer(address(this), lastBid.from, myAuction.deedRepositoryAddress, myAuction.deedId)){\r\n                auctions[_auctionId].active = false;\r\n                auctions[_auctionId].finalized = true;\r\n                emit AuctionFinalized(msg.sender, _auctionId);\r\n            }\r\n        }\r\n    }\r\n\r\n    /**\r\n    * @dev Bidder sends bid on an auction\r\n    * @dev Auction should be active and not ended\r\n    * @dev Refund previous bidder if a new bid is valid and placed.\r\n    * @param _auctionId uint ID of the created auction\r\n    */\r\n    function bidOnAuction(uint _auctionId) external payable {\r\n        uint256 ethAmountSent = msg.value;\r\n\r\n        // owner can't bid on their auctions\r\n        Auction memory myAuction = auctions[_auctionId];\r\n        if(myAuction.owner == msg.sender) revert(\"Cannot bid on your own auction\");\r\n\r\n        // if auction is expired\r\n        if( block.timestamp > myAuction.blockDeadline ) revert(\"Expired auction cannot be bid on\");\r\n\r\n        uint bidsLength = auctionBids[_auctionId].length;\r\n        uint256 tempAmount = myAuction.startPrice;\r\n        Bid memory lastBid;\r\n\r\n        // there are previous bids\r\n        if( bidsLength > 0 ) {\r\n            lastBid = auctionBids[_auctionId][bidsLength - 1];\r\n            tempAmount = lastBid.amount;\r\n        }\r\n\r\n        // check if amound is greater than previous amount  \r\n        if( ethAmountSent < tempAmount ) revert(\"Bid must exceed previous amount\"); \r\n\r\n        // refund the last bidder\r\n        if( bidsLength > 0 ) {\r\n            if(!lastBid.from.send(lastBid.amount)) {\r\n                revert(\"Bid refund failed\");\r\n            }  \r\n        }\r\n\r\n        // insert bid \r\n\t\tBid memory newBid;\r\n        newBid.from = msg.sender;\r\n        newBid.amount = ethAmountSent;\r\n        auctionBids[_auctionId].push(newBid);\r\n        emit BidSuccess(msg.sender, _auctionId);\r\n    }\r\n\t\r\n\tfunction buyoutAuction(uint _auctionId) external payable {\r\n        uint256 ethAmountSent = msg.value;\r\n\r\n        // owner can't buyout their auctions\r\n        Auction memory myAuction = auctions[_auctionId];\r\n        if(myAuction.owner == msg.sender) revert(\"Cannot buyout your own auction\");\r\n\r\n        // if auction is expired\r\n        if( block.timestamp > myAuction.blockDeadline ) revert(\"Expired auction cannot be bought out\");\r\n\r\n        uint bidsLength = auctionBids[_auctionId].length;\r\n        uint256 tempAmount = myAuction.buyoutPrice;\r\n\t\tBid memory lastBid;\r\n\r\n\r\n        // check if amound is greater than previous amount  \r\n        if( ethAmountSent < tempAmount ) revert(\"Buyout must match buyout price\"); \r\n\t\t\r\n\t\t// there are previous bids\r\n        if( bidsLength > 0 ) {\r\n            lastBid = auctionBids[_auctionId][bidsLength - 1];\r\n        }\r\n\r\n        // refund the last bidder\r\n        if( bidsLength > 0 ) {\r\n            if(!lastBid.from.send(lastBid.amount)) {\r\n                revert(\"Bid refund failed\");\r\n            }  \r\n        }\r\n\r\n        \r\n\t\t// Complete buyout and finalize auction\r\n        if(!myAuction.owner.send(tempAmount)){\r\n\t\t\trevert(\"Buyout payout failed\");\r\n\t\t}\r\n\t\t\r\n\t\tif(approveAndTransfer(address(this), msg.sender, myAuction.deedRepositoryAddress, myAuction.deedId)){\r\n\t\t\tauctions[_auctionId].active = false;\r\n\t\t\tauctions[_auctionId].finalized = true;\r\n\t\t\temit BuyoutSuccess(msg.sender, _auctionId);\r\n\t\t\temit AuctionFinalized(msg.sender, _auctionId);\r\n\t\t}\r\n    }\r\n\r\n    event BidSuccess(address _from, uint _auctionId);\r\n\t\r\n\tevent BuyoutSuccess(address _from, uint _auctionId);\r\n\r\n    // AuctionCreated is fired when an auction is created\r\n    event AuctionCreated(address _owner, uint _auctionId);\r\n\r\n    // AuctionCanceled is fired when an auction is canceled\r\n    event AuctionCanceled(address _owner, uint _auctionId);\r\n\r\n    // AuctionFinalized is fired when an auction is finalized\r\n    event AuctionFinalized(address _owner, uint _auctionId);\r\n}\r\n",
  "sourcePath": "E:\\CPSC 559-02 Final\\auction-final-project\\backend\\contracts\\AuctionRepository.sol",
  "compiler": {
    "name": "solc",
    "version": "0.5.16+commit.9c3226ce.Emscripten.clang"
  },
  "schemaVersion": "3.4.16",
  "updatedAt": "2024-05-08T05:28:26.638Z",
  "networkType": "ethereum",
  "devdoc": {
    "methods": {
      "bidOnAuction(uint256)": {
        "details": "Bidder sends bid on an auctionAuction should be active and not endedRefund previous bidder if a new bid is valid and placed.",
        "params": {
          "_auctionId": "uint ID of the created auction"
        }
      },
      "cancelAuction(uint256)": {
        "details": "Cancels an ongoing auction by the ownerDeed is transfered back to the auction ownerBidder is refunded with the initial amount",
        "params": {
          "_auctionId": "uint ID of the created auction"
        }
      },
      "createAuction(address,uint256,string,string,uint256,uint256,uint256)": {
        "details": "Creates an auction with the given informatin",
        "params": {
          "_auctionTitle": "string containing auction title",
          "_blockDeadline": "uint is the timestamp in which the auction expires",
          "_deedId": "uint256 of the deed registered in DeedRepository",
          "_deedRepositoryAddress": "address of the DeedRepository contract",
          "_metadata": "string containing auction metadata ",
          "_startPrice": "uint256 starting price of the auction"
        },
        "return": "bool whether the auction is created"
      },
      "finalizeAuction(uint256)": {
        "details": "Finalized an ended auctionThe auction should be ended, and there should be at least one bidOn success Deed is transfered to bidder and auction owner gets the amount",
        "params": {
          "_auctionId": "uint ID of the created auction"
        }
      },
      "getAuctionById(uint256)": {
        "details": "Gets the info of a given auction which are stored within a struct",
        "params": {
          "_auctionId": "uint ID of the auction"
        },
        "return": "string name of the auctionuint256 timestamp of the auction in which it expiresuint256 starting price of the auctionstring representing the metadata of the auctionuint256 ID of the deed registered in DeedRepositoryaddress Address of the DeedRepositoryaddress owner of the auctionbool whether the auction is activebool whether the auction is finalized"
      },
      "getAuctionsCountOfOwner(address)": {
        "details": "Gets the total number of auctions owned by an address",
        "params": {
          "_owner": "address of the owner"
        },
        "return": "uint total number of auctions"
      },
      "getAuctionsOf(address)": {
        "details": "Gets an array of owned auctions",
        "params": {
          "_owner": "address of the auction owner"
        }
      },
      "getBidsCount(uint256)": {
        "details": "Gets the bid counts of a given auction",
        "params": {
          "_auctionId": "uint ID of the auction"
        }
      },
      "getCount()": {
        "details": "Gets the length of auctions",
        "return": "uint representing the auction count"
      },
      "getCurrentBid(uint256)": {
        "details": "Gets an array of owned auctions",
        "params": {
          "_auctionId": "uint of the auction owner"
        },
        "return": "amount uint256, address of last bidder"
      }
    },
    "title": "Auction Repository This contracts allows auctions to be created for non-fungible tokens Moreover, it includes the basic functionalities of an auction house"
  },
  "userdoc": {
    "methods": {}
  }
}