{
  "contractName": "DeedRepository",
  "abi": [
    {
      "inputs": [
        {
          "internalType": "string",
          "name": "_name",
          "type": "string"
        },
        {
          "internalType": "string",
          "name": "_symbol",
          "type": "string"
        }
      ],
      "payable": false,
      "stateMutability": "nonpayable",
      "type": "constructor"
    },
    {
      "anonymous": false,
      "inputs": [
        {
          "indexed": true,
          "internalType": "address",
          "name": "_owner",
          "type": "address"
        },
        {
          "indexed": true,
          "internalType": "address",
          "name": "_approved",
          "type": "address"
        },
        {
          "indexed": false,
          "internalType": "uint256",
          "name": "_tokenId",
          "type": "uint256"
        }
      ],
      "name": "Approval",
      "type": "event"
    },
    {
      "anonymous": false,
      "inputs": [
        {
          "indexed": true,
          "internalType": "address",
          "name": "_owner",
          "type": "address"
        },
        {
          "indexed": true,
          "internalType": "address",
          "name": "_operator",
          "type": "address"
        },
        {
          "indexed": false,
          "internalType": "bool",
          "name": "_approved",
          "type": "bool"
        }
      ],
      "name": "ApprovalForAll",
      "type": "event"
    },
    {
      "anonymous": false,
      "inputs": [
        {
          "indexed": false,
          "internalType": "address",
          "name": "_by",
          "type": "address"
        },
        {
          "indexed": false,
          "internalType": "uint256",
          "name": "_tokenId",
          "type": "uint256"
        }
      ],
      "name": "DeedRegistered",
      "type": "event"
    },
    {
      "anonymous": false,
      "inputs": [
        {
          "indexed": true,
          "internalType": "address",
          "name": "_from",
          "type": "address"
        },
        {
          "indexed": true,
          "internalType": "address",
          "name": "_to",
          "type": "address"
        },
        {
          "indexed": false,
          "internalType": "uint256",
          "name": "_tokenId",
          "type": "uint256"
        }
      ],
      "name": "Transfer",
      "type": "event"
    },
    {
      "constant": false,
      "inputs": [
        {
          "internalType": "address",
          "name": "_to",
          "type": "address"
        },
        {
          "internalType": "uint256",
          "name": "_tokenId",
          "type": "uint256"
        }
      ],
      "name": "approve",
      "outputs": [],
      "payable": false,
      "stateMutability": "nonpayable",
      "type": "function"
    },
    {
      "constant": true,
      "inputs": [
        {
          "internalType": "address",
          "name": "_owner",
          "type": "address"
        }
      ],
      "name": "balanceOf",
      "outputs": [
        {
          "internalType": "uint256",
          "name": "",
          "type": "uint256"
        }
      ],
      "payable": false,
      "stateMutability": "view",
      "type": "function"
    },
    {
      "constant": true,
      "inputs": [
        {
          "internalType": "uint256",
          "name": "_tokenId",
          "type": "uint256"
        }
      ],
      "name": "exists",
      "outputs": [
        {
          "internalType": "bool",
          "name": "",
          "type": "bool"
        }
      ],
      "payable": false,
      "stateMutability": "view",
      "type": "function"
    },
    {
      "constant": true,
      "inputs": [
        {
          "internalType": "uint256",
          "name": "_tokenId",
          "type": "uint256"
        }
      ],
      "name": "getApproved",
      "outputs": [
        {
          "internalType": "address",
          "name": "",
          "type": "address"
        }
      ],
      "payable": false,
      "stateMutability": "view",
      "type": "function"
    },
    {
      "constant": true,
      "inputs": [
        {
          "internalType": "address",
          "name": "_owner",
          "type": "address"
        },
        {
          "internalType": "address",
          "name": "_operator",
          "type": "address"
        }
      ],
      "name": "isApprovedForAll",
      "outputs": [
        {
          "internalType": "bool",
          "name": "",
          "type": "bool"
        }
      ],
      "payable": false,
      "stateMutability": "view",
      "type": "function"
    },
    {
      "constant": true,
      "inputs": [],
      "name": "name",
      "outputs": [
        {
          "internalType": "string",
          "name": "",
          "type": "string"
        }
      ],
      "payable": false,
      "stateMutability": "view",
      "type": "function"
    },
    {
      "constant": true,
      "inputs": [
        {
          "internalType": "uint256",
          "name": "_tokenId",
          "type": "uint256"
        }
      ],
      "name": "ownerOf",
      "outputs": [
        {
          "internalType": "address",
          "name": "",
          "type": "address"
        }
      ],
      "payable": false,
      "stateMutability": "view",
      "type": "function"
    },
    {
      "constant": false,
      "inputs": [
        {
          "internalType": "address",
          "name": "_from",
          "type": "address"
        },
        {
          "internalType": "address",
          "name": "_to",
          "type": "address"
        },
        {
          "internalType": "uint256",
          "name": "_tokenId",
          "type": "uint256"
        }
      ],
      "name": "safeTransferFrom",
      "outputs": [],
      "payable": false,
      "stateMutability": "nonpayable",
      "type": "function"
    },
    {
      "constant": false,
      "inputs": [
        {
          "internalType": "address",
          "name": "_from",
          "type": "address"
        },
        {
          "internalType": "address",
          "name": "_to",
          "type": "address"
        },
        {
          "internalType": "uint256",
          "name": "_tokenId",
          "type": "uint256"
        },
        {
          "internalType": "bytes",
          "name": "_data",
          "type": "bytes"
        }
      ],
      "name": "safeTransferFrom",
      "outputs": [],
      "payable": false,
      "stateMutability": "nonpayable",
      "type": "function"
    },
    {
      "constant": false,
      "inputs": [
        {
          "internalType": "address",
          "name": "_to",
          "type": "address"
        },
        {
          "internalType": "bool",
          "name": "_approved",
          "type": "bool"
        }
      ],
      "name": "setApprovalForAll",
      "outputs": [],
      "payable": false,
      "stateMutability": "nonpayable",
      "type": "function"
    },
    {
      "constant": true,
      "inputs": [],
      "name": "symbol",
      "outputs": [
        {
          "internalType": "string",
          "name": "",
          "type": "string"
        }
      ],
      "payable": false,
      "stateMutability": "view",
      "type": "function"
    },
    {
      "constant": true,
      "inputs": [
        {
          "internalType": "uint256",
          "name": "_index",
          "type": "uint256"
        }
      ],
      "name": "tokenByIndex",
      "outputs": [
        {
          "internalType": "uint256",
          "name": "",
          "type": "uint256"
        }
      ],
      "payable": false,
      "stateMutability": "view",
      "type": "function"
    },
    {
      "constant": true,
      "inputs": [
        {
          "internalType": "address",
          "name": "_owner",
          "type": "address"
        },
        {
          "internalType": "uint256",
          "name": "_index",
          "type": "uint256"
        }
      ],
      "name": "tokenOfOwnerByIndex",
      "outputs": [
        {
          "internalType": "uint256",
          "name": "",
          "type": "uint256"
        }
      ],
      "payable": false,
      "stateMutability": "view",
      "type": "function"
    },
    {
      "constant": true,
      "inputs": [
        {
          "internalType": "uint256",
          "name": "_tokenId",
          "type": "uint256"
        }
      ],
      "name": "tokenURI",
      "outputs": [
        {
          "internalType": "string",
          "name": "",
          "type": "string"
        }
      ],
      "payable": false,
      "stateMutability": "view",
      "type": "function"
    },
    {
      "constant": true,
      "inputs": [],
      "name": "totalSupply",
      "outputs": [
        {
          "internalType": "uint256",
          "name": "",
          "type": "uint256"
        }
      ],
      "payable": false,
      "stateMutability": "view",
      "type": "function"
    },
    {
      "constant": false,
      "inputs": [
        {
          "internalType": "address",
          "name": "_from",
          "type": "address"
        },
        {
          "internalType": "address",
          "name": "_to",
          "type": "address"
        },
        {
          "internalType": "uint256",
          "name": "_tokenId",
          "type": "uint256"
        }
      ],
      "name": "transferFrom",
      "outputs": [],
      "payable": false,
      "stateMutability": "nonpayable",
      "type": "function"
    },
    {
      "constant": false,
      "inputs": [
        {
          "internalType": "uint256",
          "name": "_tokenId",
          "type": "uint256"
        },
        {
          "internalType": "string",
          "name": "_uri",
          "type": "string"
        }
      ],
      "name": "registerDeed",
      "outputs": [],
      "payable": false,
      "stateMutability": "nonpayable",
      "type": "function"
    },
    {
      "constant": false,
      "inputs": [
        {
          "internalType": "uint256",
          "name": "_tokenId",
          "type": "uint256"
        },
        {
          "internalType": "string",
          "name": "_uri",
          "type": "string"
        }
      ],
      "name": "addDeedMetadata",
      "outputs": [
        {
          "internalType": "bool",
          "name": "",
          "type": "bool"
        }
      ],
      "payable": false,
      "stateMutability": "nonpayable",
      "type": "function"
    }
  ],
  "bytecode": "0x60806040523480156200001157600080fd5b50604051620014fd380380620014fd833981810160405260408110156200003757600080fd5b81019080805160405193929190846401000000008211156200005857600080fd5b9083019060208201858111156200006e57600080fd5b82516401000000008111828201881017156200008957600080fd5b82525081516020918201929091019080838360005b83811015620000b85781810151838201526020016200009e565b50505050905090810190601f168015620000e65780820380516001836020036101000a031916815260200191505b50604052602001805160405193929190846401000000008211156200010a57600080fd5b9083019060208201858111156200012057600080fd5b82516401000000008111828201881017156200013b57600080fd5b82525081516020918201929091019080838360005b838110156200016a57818101518382015260200162000150565b50505050905090810190601f168015620001985780820380516001836020036101000a031916815260200191505b50604052505082518391508290620001b8906004906020850190620001d9565b508051620001ce906005906020840190620001d9565b50505050506200027e565b828054600181600116156101000203166002900490600052602060002090601f016020900481019282601f106200021c57805160ff19168380011785556200024c565b828001600101855582156200024c579182015b828111156200024c5782518255916020019190600101906200022f565b506200025a9291506200025e565b5090565b6200027b91905b808211156200025a576000815560010162000265565b90565b61126f806200028e6000396000f3fe608060405234801561001057600080fd5b50600436106101165760003560e01c80636352211e116100a2578063b88d4fde11610071578063b88d4fde14610378578063c87b56dd1461043e578063da5560331461045b578063e985e9c514610508578063f72439dd1461053657610116565b80636352211e146102ff57806370a082311461031c57806395d89b4114610342578063a22cb4651461034a57610116565b806323b872dd116100e957806323b872dd146102195780632f745c591461024f57806342842e0e1461027b5780634f558e79146102b15780634f6ccce7146102e257610116565b806306fdde031461011b578063081812fc14610198578063095ea7b3146101d157806318160ddd146101ff575b600080fd5b6101236105e3565b6040805160208082528351818301528351919283929083019185019080838360005b8381101561015d578181015183820152602001610145565b50505050905090810190601f16801561018a5780820380516001836020036101000a031916815260200191505b509250505060405180910390f35b6101b5600480360360208110156101ae57600080fd5b503561067a565b604080516001600160a01b039092168252519081900360200190f35b6101fd600480360360408110156101e757600080fd5b506001600160a01b038135169060200135610695565b005b61020761077e565b60408051918252519081900360200190f35b6101fd6004803603606081101561022f57600080fd5b506001600160a01b03813581169160208101359091169060400135610784565b6102076004803603604081101561026557600080fd5b506001600160a01b03813516906020013561082d565b6101fd6004803603606081101561029157600080fd5b506001600160a01b0381358116916020810135909116906040013561087a565b6102ce600480360360208110156102c757600080fd5b50356108af565b604080519115158252519081900360200190f35b610207600480360360208110156102f857600080fd5b50356108cc565b6101b56004803603602081101561031557600080fd5b5035610900565b6102076004803603602081101561033257600080fd5b50356001600160a01b0316610928565b610123610959565b6101fd6004803603604081101561036057600080fd5b506001600160a01b03813516906020013515156109ba565b6101fd6004803603608081101561038e57600080fd5b6001600160a01b038235811692602081013590911691604082013591908101906080810160608201356401000000008111156103c957600080fd5b8201836020820111156103db57600080fd5b803590602001918460018302840111640100000000831117156103fd57600080fd5b91908080601f016020809104026020016040519081016040528093929190818152602001838380828437600092019190915250929550610a3e945050505050565b6101236004803603602081101561045457600080fd5b5035610a79565b6102ce6004803603604081101561047157600080fd5b8135919081019060408101602082013564010000000081111561049357600080fd5b8201836020820111156104a557600080fd5b803590602001918460018302840111640100000000831117156104c757600080fd5b91908080601f016020809104026020016040519081016040528093929190818152602001838380828437600092019190915250929550610b2c945050505050565b6102ce6004803603604081101561051e57600080fd5b506001600160a01b0381358116916020013516610b41565b6101fd6004803603604081101561054c57600080fd5b8135919081019060408101602082013564010000000081111561056e57600080fd5b82018360208201111561058057600080fd5b803590602001918460018302840111640100000000831117156105a257600080fd5b91908080601f016020809104026020016040519081016040528093929190818152602001838380828437600092019190915250929550610b6f945050505050565b60048054604080516020601f600260001961010060018816150201909516949094049384018190048102820181019092528281526060939092909183018282801561066f5780601f106106445761010080835404028352916020019161066f565b820191906000526020600020905b81548152906001019060200180831161065257829003601f168201915b505050505090505b90565b6000908152600160205260409020546001600160a01b031690565b60006106a082610900565b9050806001600160a01b0316836001600160a01b031614156106c157600080fd5b336001600160a01b03821614806106dd57506106dd8133610b41565b6106e657600080fd5b60006106f18361067a565b6001600160a01b031614158061070f57506001600160a01b03831615155b156107795760008281526001602090815260409182902080546001600160a01b0319166001600160a01b03878116918217909255835186815293519093918516927f8c5be1e5ebec7d5bd14f71427d1e84f3dd0314c0f7b2291e5b200ac8c7c3b925928290030190a35b505050565b60085490565b8061078f3382610bc3565b61079857600080fd5b6001600160a01b0384166107ab57600080fd5b6001600160a01b0383166107be57600080fd5b6107c88483610c22565b6107d28483610cc3565b6107dc8383610df5565b826001600160a01b0316846001600160a01b03167fddf252ad1be2c89b69c2b068fc378daa952ba7f163c4a11628f55a4df523b3ef846040518082815260200191505060405180910390a350505050565b600061083883610928565b821061084357600080fd5b6001600160a01b038316600090815260066020526040902080548390811061086757fe5b9060005260206000200154905092915050565b806108853382610bc3565b61088e57600080fd5b6108a984848460405180602001604052806000815250610a3e565b50505050565b6000908152602081905260409020546001600160a01b0316151590565b60006108d661077e565b82106108e157600080fd5b600882815481106108ee57fe5b90600052602060002001549050919050565b6000818152602081905260408120546001600160a01b03168061092257600080fd5b92915050565b60006001600160a01b03821661093d57600080fd5b506001600160a01b031660009081526002602052604090205490565b60058054604080516020601f600260001961010060018816150201909516949094049384018190048102820181019092528281526060939092909183018282801561066f5780601f106106445761010080835404028352916020019161066f565b6001600160a01b0382163314156109d057600080fd5b3360008181526003602090815260408083206001600160a01b03871680855290835292819020805460ff1916861515908117909155815190815290519293927f17307eab39ab6107e8899845ad3d59bd9653f200f220920489ca2b5937696c31929181900390910190a35050565b81610a493382610bc3565b610a5257600080fd5b610a5d858585610784565b610a6985858585610e3b565b610a7257600080fd5b5050505050565b6060610a84826108af565b610a8d57600080fd5b6000828152600a602090815260409182902080548351601f600260001961010060018616150201909316929092049182018490048402810184019094528084529091830182828015610b205780601f10610af557610100808354040283529160200191610b20565b820191906000526020600020905b815481529060010190602001808311610b0357829003601f168201915b50505050509050919050565b6000610b388383610f64565b50600192915050565b6001600160a01b03918216600090815260036020908152604080832093909416825291909152205460ff1690565b610b793383610f95565b610b838282610b2c565b50604080513381526020810184905281517f32cc5b866d6a5990a7f987020b639157969cb963b9beb2cdf41df22ab152df35929181900390910190a15050565b600080610bcf83610900565b9050806001600160a01b0316846001600160a01b03161480610c0a5750836001600160a01b0316610bff8461067a565b6001600160a01b0316145b80610c1a5750610c1a8185610b41565b949350505050565b816001600160a01b0316610c3582610900565b6001600160a01b031614610c4857600080fd5b6000818152600160205260409020546001600160a01b031615610cbf57600081815260016020908152604080832080546001600160a01b0319169055805184815290516001600160a01b038616927f8c5be1e5ebec7d5bd14f71427d1e84f3dd0314c0f7b2291e5b200ac8c7c3b925928290030190a35b5050565b610ccd8282610fe4565b6000818152600760209081526040808320546001600160a01b03861684526006909252822054909190610d0790600163ffffffff61106c16565b6001600160a01b03851660009081526006602052604081208054929350909183908110610d3057fe5b906000526020600020015490508060066000876001600160a01b03166001600160a01b031681526020019081526020016000208481548110610d6e57fe5b60009182526020808320909101929092556001600160a01b0387168152600690915260408120805484908110610da057fe5b60009182526020808320909101929092556001600160a01b0387168152600690915260409020805490610dd790600019830161117e565b50600093845260076020526040808520859055908452909220555050565b610dff828261107e565b6001600160a01b039091166000908152600660209081526040808320805460018101825590845282842081018590559383526007909152902055565b6000610e4f846001600160a01b0316611100565b610e5b57506001610c1a565b60405163785cf2dd60e11b81526001600160a01b0386811660048301908152602483018690526060604484019081528551606485015285516000949389169363f0b9e5ba938b938a938a936084019060208501908083838d5b83811015610ecc578181015183820152602001610eb4565b50505050905090810190601f168015610ef95780820380516001836020036101000a031916815260200191505b50945050505050602060405180830381600087803b158015610f1a57600080fd5b505af1158015610f2e573d6000803e3d6000fd5b505050506040513d6020811015610f4457600080fd5b50516001600160e01b03191663785cf2dd60e11b14915050949350505050565b610f6d826108af565b610f7657600080fd5b6000828152600a602090815260409091208251610779928401906111a2565b610f9f8282611106565b600880546000838152600960205260408120829055600182018355919091527ff3f7a9fe364faab93b216da50a3214154f22a0a2b415b23a84c8169e8b636ee3015550565b816001600160a01b0316610ff782610900565b6001600160a01b03161461100a57600080fd5b6001600160a01b03821660009081526002602052604090205461103490600163ffffffff61106c16565b6001600160a01b03909216600090815260026020908152604080832094909455918152908190522080546001600160a01b0319169055565b60008282111561107857fe5b50900390565b6000818152602081905260409020546001600160a01b0316156110a057600080fd5b60008181526020818152604080832080546001600160a01b0319166001600160a01b038716908117909155835260029091529020546110e0906001611168565b6001600160a01b0390921660009081526002602052604090209190915550565b3b151590565b6001600160a01b03821661111957600080fd5b6111238282610df5565b6040805182815290516001600160a01b038416916000917fddf252ad1be2c89b69c2b068fc378daa952ba7f163c4a11628f55a4df523b3ef9181900360200190a35050565b60008282018381101561117757fe5b9392505050565b81548183558181111561077957600083815260209020610779918101908301611220565b828054600181600116156101000203166002900490600052602060002090601f016020900481019282601f106111e357805160ff1916838001178555611210565b82800160010185558215611210579182015b828111156112105782518255916020019190600101906111f5565b5061121c929150611220565b5090565b61067791905b8082111561121c576000815560010161122656fea265627a7a72315820c6d1d567e8fc43cb1b91252a011db2fe0fabb5c21874ae44c5bac96c361e89c964736f6c63430005100032",
  "source": "pragma solidity ^0.5.16;\r\nimport \"./ERC721/ERC721Token.sol\";\r\n\r\n/**\r\n * @title Repository of ERC721 Deeds\r\n * This contract contains the list of deeds registered by users.\r\n * This is a demo to show how tokens (deeds) can be minted and added \r\n * to the repository.\r\n */\r\ncontract DeedRepository is ERC721Token {\r\n\r\n\r\n    /**\r\n    * @dev Created a DeedRepository with a name and symbol\r\n    * @param _name string represents the name of the repository\r\n    * @param _symbol string represents the symbol of the repository\r\n    */\r\n    constructor(string memory _name, string memory _symbol) \r\n        public ERC721Token(_name, _symbol) {}\r\n    \r\n    /**\r\n    * @dev Public function to register a new deed\r\n    * @dev Call the ERC721Token minter\r\n    * @param _tokenId uint256 represents a specific deed\r\n    * @param _uri string containing metadata/uri\r\n    */\r\n    function registerDeed(uint256 _tokenId, string memory _uri) public {\r\n        _mint(msg.sender, _tokenId);\r\n        addDeedMetadata(_tokenId, _uri);\r\n        emit DeedRegistered(msg.sender, _tokenId);\r\n    }\r\n\r\n    /**\r\n    * @dev Public function to add metadata to a deed\r\n    * @param _tokenId represents a specific deed\r\n    * @param _uri text which describes the characteristics of a given deed\r\n    * @return whether the deed metadata was added to the repository\r\n    */\r\n    function addDeedMetadata(uint256 _tokenId, string memory _uri) public returns(bool){\r\n        _setTokenURI(_tokenId, _uri);\r\n        return true;\r\n    }\r\n\r\n    /**\r\n    * @dev Event is triggered if deed/token is registered\r\n    * @param _by address of the registrar\r\n    * @param _tokenId uint256 represents a specific deed\r\n    */\r\n    event DeedRegistered(address _by, uint256 _tokenId);\r\n}\r\n",
  "sourcePath": "E:\\CPSC 559-02 Final\\auction-final-project\\backend\\contracts\\DeedRepository.sol",
  "compiler": {
    "name": "solc",
    "version": "0.5.16+commit.9c3226ce.Emscripten.clang"
  },
  "schemaVersion": "3.4.16",
  "updatedAt": "2024-05-06T22:17:19.563Z",
  "networkType": "ethereum",
  "devdoc": {
    "methods": {
      "addDeedMetadata(uint256,string)": {
        "details": "Public function to add metadata to a deed",
        "params": {
          "_tokenId": "represents a specific deed",
          "_uri": "text which describes the characteristics of a given deed"
        },
        "return": "whether the deed metadata was added to the repository"
      },
      "approve(address,uint256)": {
        "details": "Approves another address to transfer the given token IDThe zero address indicates there is no approved address.There can only be one approved address per token at a given time.Can only be called by the token owner or an approved operator.",
        "params": {
          "_to": "address to be approved for the given token ID",
          "_tokenId": "uint256 ID of the token to be approved"
        }
      },
      "balanceOf(address)": {
        "details": "Gets the balance of the specified address",
        "params": {
          "_owner": "address to query the balance of"
        },
        "return": "uint256 representing the amount owned by the passed address"
      },
      "constructor": {
        "details": "Created a DeedRepository with a name and symbol",
        "params": {
          "_name": "string represents the name of the repository",
          "_symbol": "string represents the symbol of the repository"
        }
      },
      "exists(uint256)": {
        "details": "Returns whether the specified token exists",
        "params": {
          "_tokenId": "uint256 ID of the token to query the existance of"
        },
        "return": "whether the token exists"
      },
      "getApproved(uint256)": {
        "details": "Gets the approved address for a token ID, or zero if no address set",
        "params": {
          "_tokenId": "uint256 ID of the token to query the approval of"
        },
        "return": "address currently approved for a the given token ID"
      },
      "isApprovedForAll(address,address)": {
        "details": "Tells whether an operator is approved by a given owner",
        "params": {
          "_operator": "operator address which you want to query the approval of",
          "_owner": "owner address which you want to query the approval of"
        },
        "return": "bool whether the given operator is approved by the given owner"
      },
      "name()": {
        "details": "Gets the token name",
        "return": "string representing the token name"
      },
      "ownerOf(uint256)": {
        "details": "Gets the owner of the specified token ID",
        "params": {
          "_tokenId": "uint256 ID of the token to query the owner of"
        },
        "return": "owner address currently marked as the owner of the given token ID"
      },
      "registerDeed(uint256,string)": {
        "details": "Public function to register a new deedCall the ERC721Token minter",
        "params": {
          "_tokenId": "uint256 represents a specific deed",
          "_uri": "string containing metadata/uri"
        }
      },
      "safeTransferFrom(address,address,uint256)": {
        "details": "Safely transfers the ownership of a given token ID to another addressIf the target address is a contract, it must implement `onERC721Received`, which is called upon a safe transfer, and return the magic value `bytes4(keccak256(\"onERC721Received(address,uint256,bytes)\"))`; otherwise, the transfer is reverted.Requires the msg sender to be the owner, approved, or operator",
        "params": {
          "_from": "current owner of the token",
          "_to": "address to receive the ownership of the given token ID",
          "_tokenId": "uint256 ID of the token to be transferred"
        }
      },
      "safeTransferFrom(address,address,uint256,bytes)": {
        "details": "Safely transfers the ownership of a given token ID to another addressIf the target address is a contract, it must implement `onERC721Received`, which is called upon a safe transfer, and return the magic value `bytes4(keccak256(\"onERC721Received(address,uint256,bytes)\"))`; otherwise, the transfer is reverted.Requires the msg sender to be the owner, approved, or operator",
        "params": {
          "_data": "bytes data to send along with a safe transfer check",
          "_from": "current owner of the token",
          "_to": "address to receive the ownership of the given token ID",
          "_tokenId": "uint256 ID of the token to be transferred"
        }
      },
      "setApprovalForAll(address,bool)": {
        "details": "Sets or unsets the approval of a given operatorAn operator is allowed to transfer all tokens of the sender on their behalf",
        "params": {
          "_approved": "representing the status of the approval to be set",
          "_to": "operator address to set the approval"
        }
      },
      "symbol()": {
        "details": "Gets the token symbol",
        "return": "string representing the token symbol"
      },
      "tokenByIndex(uint256)": {
        "details": "Gets the token ID at a given index of all the tokens in this contractReverts if the index is greater or equal to the total number of tokens",
        "params": {
          "_index": "uint256 representing the index to be accessed of the tokens list"
        },
        "return": "uint256 token ID at the given index of the tokens list"
      },
      "tokenOfOwnerByIndex(address,uint256)": {
        "details": "Gets the token ID at a given index of the tokens list of the requested owner",
        "params": {
          "_index": "uint256 representing the index to be accessed of the requested tokens list",
          "_owner": "address owning the tokens list to be accessed"
        },
        "return": "uint256 token ID at the given index of the tokens list owned by the requested address"
      },
      "tokenURI(uint256)": {
        "details": "Returns an URI for a given token IDThrows if the token ID does not exist. May return an empty string.",
        "params": {
          "_tokenId": "uint256 ID of the token to query"
        }
      },
      "totalSupply()": {
        "details": "Gets the total amount of tokens stored by the contract",
        "return": "uint256 representing the total amount of tokens"
      },
      "transferFrom(address,address,uint256)": {
        "details": "Transfers the ownership of a given token ID to another addressUsage of this method is discouraged, use `safeTransferFrom` whenever possibleRequires the msg sender to be the owner, approved, or operator",
        "params": {
          "_from": "current owner of the token",
          "_to": "address to receive the ownership of the given token ID",
          "_tokenId": "uint256 ID of the token to be transferred"
        }
      }
    },
    "title": "Repository of ERC721 Deeds This contract contains the list of deeds registered by users. This is a demo to show how tokens (deeds) can be minted and added  to the repository."
  },
  "userdoc": {
    "methods": {}
  }
}